:100000000C945D000C9485000C9485000C94850084
:100010000C9485000C9485000C9485000C9485004C
:100020000C9485000C9485000C9485000C9485003C
:100030000C9485000C9485000C9485000C9485002C
:100040000C9407020C9485000C94D2040C941505B2
:100050000C9485000C9485000C9485000C9485000C
:100060000C9485000C94850000000007000201003C
:100070000003040600000000000000000102040864
:100080001020408001020408102001020408102002
:10009000040404040404040402020202020203032E
:1000A0000303030300000000250028002B000000CC
:1000B0000000240027002A00D80511241FBECFEF1E
:1000C000D8E0DEBFCDBF13E0A0E0B1E0ECEDF0E1A1
:1000D00002C005900D92A230B107D9F723E0A2E04B
:1000E000B3E001C01D92A13CB207E1F710E0CDE5FD
:1000F000D0E004C02197FE010E946608CC35D107EC
:10010000C9F70E942B040C9429080C94000061E0AC
:100110008DE00E94000361E08DE00E943C0368EEE8
:1001200073E080E090E00E94760260E08DE00C9445
:100130003C03E2E0F3E08083628348E050E0BF01EB
:1001400083E193E00C946C03E2E0F3E0108212820E
:1001500048E050E0BF0183E193E00C946C032F92E0
:100160003F924F925F927F928F929F92AF92BF92F7
:10017000CF92DF92EF92FF920F931F93CF93DF9373
:10018000CDB7DEB7CD58D1090FB6F894DEBF0FBE9C
:10019000CDBF4C016E018FE5C80ED11C8AE1E6E0AF
:1001A000F1E0D60101900D928A95E1F784E3E0E257
:1001B000F1E0DE01119601900D928A95E1F75E0162
:1001C000E9E7AE0EB11C85E1E4E5F1E0D50101906F
:1001D0000D928A95E1F78AE2E9E6F1E0DE01D59633
:1001E00001900D928A95E1F7E12CF12CF4018481C4
:1001F0009581E816F90608F052C0B701C4010E94C3
:100200002904782E8F7D81548A3110F0F50134C095
:100210001601472C072C000C550881010C191D09EB
:10022000F10181911F0178120BC0000F111FE1E055
:10023000F0E0EC0FFD1FE00FF11F608171812CC019
:10024000082E000C990B0E942C084816590629F715
:10025000000F111FE1E0F0E0EC0FFD1FE00FF11FB8
:100260006081718182E090E00E9499000E94A40068
:10027000FFEFEF1AFF0ABACF9F012A193B098191BC
:100280007812FACF220F331FE1E0F0E0EC0FFD1FF0
:10029000E20FF31F64A975A980E090E0E5CFC35792
:1002A000DF4F0FB6F894DEBF0FBECDBFDF91CF9109
:1002B0001F910F91FF90EF90DF90CF90BF90AF9084
:1002C0009F908F907F905F904F903F902F900895D8
:1002D000CF93DF93CDB7DEB727970FB6F894DEBF85
:1002E0000FBECDBF40E855E260E070E083E193E0EF
:1002F0000E94500568EB7BE080E090E00E9476026F
:1003000065E170E088E090E00E9499000E94A400FE
:1003100068EC70E080E090E00E94760263E971E0B2
:10032000CE0101960E940204CE0101960E94AF0008
:10033000CE0101960E94940368E270E080E090E0B4
:100340000E9499000E94A40064EF71E080E090E0B8
:100350000E9476026BE971E0CE0101960E940204D0
:10036000CE0101960E94AF00CE0101960E94940337
:1003700068E270E080E090E00E9499000E94A40092
:1003800064EF71E080E090E00E9476026BE472E03E
:10039000CE0101960E940204CE0101960E94AF0098
:1003A000CE0101960E94940368E270E080E090E044
:1003B0000E9499000E94A40064EF71E080E090E048
:1003C0000E9476026FEC72E0CE0101960E94020458
:1003D000CE0101960E94AF00CE0101960E949403C7
:1003E00068E270E080E090E00E9499000E94A40022
:1003F00064EF71E080E090E00E94760227960FB6ED
:10040000F894DEBF0FBECDBFDF91CF9108951F924C
:100410000F920FB60F9211242F933F938F939F93B8
:10042000AF93BF9380910B0390910C03A0910D03A8
:10043000B0910E0330910A0323E0230F2D3720F4EF
:100440000196A11DB11D05C026E8230F0296A11D2E
:10045000B11D20930A0380930B0390930C03A09388
:100460000D03B0930E0380910F0390911003A091A0
:100470001103B09112030196A11DB11D80930F03CA
:1004800090931003A0931103B0931203BF91AF9107
:100490009F918F913F912F910F900FBE0F901F90C2
:1004A00018953FB7F89480910F0390911003A09195
:1004B0001103B091120326B5A89B05C02F3F19F078
:1004C0000196A11DB11D3FBFBA2FA92F982F8827D4
:1004D000820F911DA11DB11DBC01CD0142E0660F2F
:1004E000771F881F991F4A95D1F70895CF92DF9201
:1004F000EF92FF92CF93DF936B017C010E94510238
:10050000EB01C114D104E104F10479F00E9451021D
:100510006C1B7D0B683E7340A0F381E0C81AD108C4
:10052000E108F108C851DC4FECCFDF91CF91FF908B
:10053000EF90DF90CF900895789484B5826084BD69
:1005400084B5816084BD85B5826085BD85B58160D7
:1005500085BDEEE6F0E0808181608083E1E8F0E037
:100560001082808182608083808181608083E0E866
:10057000F0E0808181608083E1EBF0E08081846045
:100580008083E0EBF0E0808181608083EAE7F0E047
:1005900080818460808380818260808380818160AB
:1005A00080838081806880831092C10008958330A9
:1005B00081F028F4813099F08230A1F008958630DE
:1005C000A9F08730B9F08430D1F4809180008F7D1C
:1005D00003C0809180008F7780938000089584B558
:1005E0008F7702C084B58F7D84BD08958091B0005F
:1005F0008F7703C08091B0008F7D8093B000089505
:10060000CF93DF9390E0FC01E458FF4F2491FC016D
:10061000E057FF4F8491882361F190E0880F991F84
:10062000FC01E255FF4FC591D491FC01EC55FF4F01
:10063000A591B491611109C09FB7F8948881209564
:1006400082238883EC912E230BC0623061F49FB724
:10065000F8943881822F809583238883EC912E2B08
:100660002C939FBF06C08FB7F894E8812E2B288368
:100670008FBFDF91CF9108951F93CF93DF93282FE2
:1006800030E0F901E859FF4F8491F901E458FF4F38
:10069000D491F901E057FF4FC491CC23C9F0162F34
:1006A00081110E94D702EC2FF0E0EE0FFF1FEC55F6
:1006B000FF4FA591B4918FB7F894111105C09C918B
:1006C000ED2FE095E92302C0EC91ED2BEC938FBF69
:1006D000DF91CF911F910895CF92DF92EF92FF9219
:1006E0000F931F93CF93DF936C01EB017B01E40E1B
:1006F000F51E00E010E0CE15DF0561F06991D6012E
:10070000ED91FC910190F081E02DC6010995080F53
:10071000191FF1CFC801DF91CF911F910F91FF9069
:10072000EF90DF90CF900895FC01808191810C942F
:100730009107CF93DF93EC0188819981009711F0A5
:100740000E949107198218821D821C821B821A82C4
:10075000DF91CF9108950F931F93CF93DF93EC0117
:100760008B016F5F7F4F888199810E9413060097EC
:1007700031F0998388831B830A8381E001C080E084
:10078000DF91CF911F910F910895CF93DF93EC01EB
:1007900088819981892B29F08A819B818617970707
:1007A00060F4CE010E94AB03882341F08C819D81CF
:1007B000892B19F4E881F981108281E0DF91CF91D2
:1007C0000895EF92FF920F931F93CF93DF93EC0165
:1007D0007B018A01BA010E94C503811104C0CE01C8
:1007E0000E94990307C01D830C83B70188819981FA
:1007F0000E943D08CE01DF91CF911F910F91FF9094
:10080000EF900895FC0111821082138212821582EA
:10081000148216826115710551F0FB0101900020D0
:10082000E9F73197AF01461B570B0C94E10308958C
:10083000FC01248135816217730748F4808191811E
:10084000009729F0FC01E60FF71F8081089580E0F2
:1008500008950C9418040E949C020E946801CCE048
:10086000D5E00E9487002097E1F30E940C05F9CFA4
:10087000FC0124853585F901E05CFF4F8081918181
:10088000329620813181821B930B8F7399270895B3
:10089000DC011C96ED91FC911D97DF01A05CBF4F20
:1008A0002D913C91119712968D919C91119728173B
:1008B000390739F08D919C91E80FF91F808190E004
:1008C00008958FEF9FEF0895FC01A485B585FD0184
:1008D000E05CFF4F20813181329680819181281721
:1008E000390779F080819181A80FB91F8C912081FF
:1008F00031812F5F3F4F2F7333273183208390E067
:1009000008958FEF9FEF0895FC0181A1882329F0BE
:10091000A489B5898C9186FFFBCF11A208950F930E
:100920001F93CF93DF93FC01A685B7858D01005CF3
:100930001F4FE8018881998101968F739927AD0136
:100940004E5B5F4FEA012881398182179307D1F30B
:10095000E80128813981A20FB31F6C93A685B78562
:10096000A05CBF4F11969C938E93A689B7892C915A
:1009700081E090E0078C02C0880F991F0A94E2F78B
:10098000822B8C9381E081A30488F589E02D8081FE
:100990008064808381E090E0DF91CF911F910F917F
:1009A000089508951F920F920FB60F9211242F935E
:1009B0004F935F938F939F93EF93FF938091C0002A
:1009C00082FD1CC02091C6008091B9039091BA03AA
:1009D00001968F7399274091BB035091BC038417F4
:1009E000950771F0E091B903F091BA03E758FC4F15
:1009F00020839093BA038093B90302C08091C6000C
:100A0000FF91EF919F918F915F914F912F910F9057
:100A10000FBE0F901F90189583E193E00E94380459
:100A2000892B11F00C94D10408951F920F920FB6E8
:100A30000F9211242F933F938F939F93EF93FF93E4
:100A4000209175033091760380917703909178031C
:100A50002817390731F48091C1008F7D8093C10040
:100A600014C0E0917703F0917803EB5CFC4F208198
:100A7000809177039091780301968F7399279093D3
:100A80007803809377032093C600FF91EF919F91A5
:100A90008F913F912F910F900FBE0F901F9018953F
:100AA000CF92DF92EF92FF920F931F93CF93DF933A
:100AB000EC016A017B014115514E6105710509F197
:100AC000EC89FD8981E090E008A002C0880F991FA1
:100AD0000A94E2F7808360E079E08DE390E0A7017B
:100AE00096010E94440889019A01015011092109C7
:100AF00031093695279517950795980101151041ED
:100B0000A8F0EC89FD89108260E874E88EE190E03D
:100B1000A70196010E944408DA01C9010197A109C1
:100B2000B109B695A795979587959C01E889F989AC
:100B30003083EA89FB89208319A2EE89FF894081ED
:100B400081E090E09C010C8C02C0220F331F0A94BC
:100B5000E2F7242B2083EE89FF8940819C010D8CD4
:100B600002C0220F331F0A94E2F7242B2083EE8960
:100B7000FF8940819C010E8C02C0220F331F0A9412
:100B8000E2F7242B2083EE89FF8920810F8C02C09D
:100B9000880F991F0A94E2F7809582238083DF9162
:100BA000CF911F910F91FF90EF90DF90CF9008951C
:100BB000E3E1F3E01382128288EE93E0A0E0B0E07C
:100BC00084839583A683B78386EF92E091838083A5
:100BD00089E793E09587848785E393E09787868705
:100BE00085EC90E0918B808B84EC90E0938B828BF2
:100BF00080EC90E0958B848B81EC90E0978B868BDA
:100C000082EC90E0918F808F86EC90E0938F828FC2
:100C100084E0848F83E0858F87E0868F85E0878FEF
:100C200081E080A308956F927F928F929F92AF92FE
:100C3000BF92CF92DF92EF92FF920F931F93CF93C9
:100C4000DF93EC01009789F4CB01DF91CF911F91E5
:100C50000F91FF90EF90DF90CF90BF90AF909F905B
:100C60008F907F906F900C94FC06FC01E60FF71FAD
:100C70009C0122503109E217F30708F4ACC0D901F6
:100C80000D911C91119706171707B0F0053011054B
:100C900008F49FC0C80104978617970708F499C005
:100CA00002501109061B170B019311936D937C934E
:100CB000CF010E9491078DC05B01A01AB10A4C01BF
:100CC000800E911EA091BF03B091C00340E050E0A0
:100CD000E12CF12C109709F44AC0A815B905D1F5FB
:100CE0006D907C901197630182E0C80ED11CCA14EC
:100CF000DB0480F1A3014A195B096A0182E0C80E96
:100D0000D11C1296BC9012971396AC91B5E0CB16FD
:100D1000D10440F0B282A38351834083D9016D9303
:100D20007C930AC00E5F1F4FC301800F911FF90112
:100D300091838083EB2DFA2FE114F10431F0D70178
:100D40001396FC93EE93129744C0F093C003E09384
:100D5000BF033FC08D919C9111974817590708F424
:100D6000AC017D0112960D90BC91A02DB3CF809166
:100D7000BD039091BE0388159905E1F44617570706
:100D8000C8F48091000190910101009741F48DB762
:100D90009EB74091040150910501841B950BE81703
:100DA000F907C8F4F093BE03E093BD03F901718322
:100DB00060830FC0CB010E94FC067C01009759F0B4
:100DC000A801BE010E943408CE010E949107C7010C
:100DD00004C0CE0102C080E090E0DF91CF911F916E
:100DE0000F91FF90EF90DF90CF90BF90AF909F90CA
:100DF0008F907F906F900895CF93DF93823091050D
:100E000010F482E090E0E091BF03F091C00320E095
:100E100030E0C0E0D0E0309711F1408151814817B7
:100E20005907C0F04817590761F4828193812097D0
:100E300019F09B838A832BC09093C0038093BF03D8
:100E400026C02115310519F04217530718F49A01ED
:100E5000BE01DF01EF010280F381E02DDCCF21151F
:100E6000310509F1281B390B2430310590F4129615
:100E70008D919C9113976115710521F0FB0193836E
:100E8000828304C09093C0038093BF03FD01329618
:100E900044C0FD01E20FF31F819391932250310969
:100EA0002D933C933AC02091BD033091BE03232B78
:100EB00041F420910201309103013093BE0320934D
:100EC000BD0320910001309101012115310541F44C
:100ED0002DB73EB74091040150910501241B350BFD
:100EE000E091BD03F091BE03E217F307A0F42E1BBF
:100EF0003F0B2817390778F0AC014E5F5F4F24177E
:100F0000350748F04E0F5F1F5093BE034093BD035B
:100F10008193919302C0E0E0F0E0CF01DF91CF91A7
:100F200008950F931F93CF93DF93009709F48CC01C
:100F3000FC013297138212820091BF031091C0030B
:100F40000115110581F420813181820F931F2091B9
:100F5000BD033091BE032817390779F5F093BE031E
:100F6000E093BD0371C0D80140E050E0AE17BF0769
:100F700050F412962D913C911397AD012115310536
:100F800009F1D901F3CF9D01DA0133832283608116
:100F90007181860F971F8217930769F4EC012881EE
:100FA0003981260F371F2E5F3F4F318320838A817F
:100FB0009B8193838283452B29F4F093C003E093B4
:100FC000BF0342C01396FC93EE931297ED01499133
:100FD00059919E01240F351FE217F30771F48081A8
:100FE0009181840F951F029611969C938E93828116
:100FF000938113969C938E931297E0E0F0E0D801D2
:1010000012968D919C911397009719F0F8018C011D
:10101000F6CF8D919C9198012E5F3F4F820F931FC9
:101020002091BD033091BE032817390769F430972A
:1010300029F41092C0031092BF0302C013821282DF
:101040001093BE030093BD03DF91CF911F910F91C9
:101050000895F8940C946C089111089581568A5162
:1010600008F4805285580895FB01DC0102C001900C
:101070000D9241505040D8F70895FB01DC010190DA
:101080000D920020E1F70895A1E21A2EAA1BBB1BC6
:10109000FD010DC0AA1FBB1FEE1FFF1FA217B30744
:1010A000E407F50720F0A21BB30BE40BF50B661F5A
:1010B000771F881F991F1A9469F76095709580951E
:1010C00090959B01AC01BD01CF010895EE0FFF1F6C
:0C10D0000590F491E02D0994F894FFCFF6
:1010DC000000C10380006162636465666768696AC9
:1010EC006B6C6D6E6F707172737475767778797ACC
:1010FC000400050006000700080009000A000B00A8
:10110C000C000D000E000F00100011001200130057
:10111C001400150016001700180019001A001B0007
:10112C001C001D00313233343536373839302D3D03
:10113C005B5D5C3B272C2E2F201E001F0020002106
:10114C00002200230024002500260027002D002E5D
:10115C00002F0030003100330034003600370038E7
:10116C00002C00636D642E65786500706F77657276
:10117C007368656C6C202D636F6D6D616E642022DD
:10118C00284E65772D4F626A6563742053797374AA
:10119C00656D2E4E65742E576562436C69656E7471
:1011AC00292E446F776E6C6F616446696C652827D5
:1011BC0068747470733A2F2F6769746875622E6344
:1011CC006F6D2F6578306475732D30782F70776E56
:1011DC006475696E6F2F626C6F622F6D61737465CD
:1011EC00722F646570732F57656242726F777365E7
:1011FC007250617373566965772E657865272C205C
:10120C002757656242726F777365725061737356BC
:10121C006965772E657865272922005765624272C9
:10122C006F7773657250617373566965772E657845
:10123C0065202F4C6F616450617373776F726473A8
:10124C004368726F6D652031202F4C6F6164506163
:10125C007373776F72647346697265666F78203149
:10126C00202F4C6F616450617373776F7264734994
:10127C00452031202F4C6F616450617373776F720E
:10128C0064734F706572612031202F7374657874AC
:10129C002070617373776F7264732E74787400525C
:1012AC00656D6F76652D4974656D20576562427268
:1012BC006F7773657250617373566965772E6578B5
:1012CC006500000000008F046C03380464044804BB
:0212DC00840488
:00000001FF
